{
  "contractName": "Casino",
  "abi": [
    {
      "constant": true,
      "inputs": [],
      "name": "numberOfBets",
      "outputs": [
        {
          "name": "",
          "type": "uint256"
        }
      ],
      "payable": false,
      "stateMutability": "view",
      "type": "function"
    },
    {
      "constant": true,
      "inputs": [
        {
          "name": "",
          "type": "address"
        }
      ],
      "name": "playerInfo",
      "outputs": [
        {
          "name": "amountBet",
          "type": "uint256"
        },
        {
          "name": "numberSelected",
          "type": "uint256"
        }
      ],
      "payable": false,
      "stateMutability": "view",
      "type": "function"
    },
    {
      "constant": true,
      "inputs": [],
      "name": "owner",
      "outputs": [
        {
          "name": "",
          "type": "address"
        }
      ],
      "payable": false,
      "stateMutability": "view",
      "type": "function"
    },
    {
      "constant": true,
      "inputs": [],
      "name": "minimumBet",
      "outputs": [
        {
          "name": "",
          "type": "uint256"
        }
      ],
      "payable": false,
      "stateMutability": "view",
      "type": "function"
    },
    {
      "constant": true,
      "inputs": [],
      "name": "maxAmountOfBets",
      "outputs": [
        {
          "name": "",
          "type": "uint256"
        }
      ],
      "payable": false,
      "stateMutability": "view",
      "type": "function"
    },
    {
      "constant": true,
      "inputs": [
        {
          "name": "",
          "type": "uint256"
        }
      ],
      "name": "players",
      "outputs": [
        {
          "name": "",
          "type": "address"
        }
      ],
      "payable": false,
      "stateMutability": "view",
      "type": "function"
    },
    {
      "constant": true,
      "inputs": [],
      "name": "totalBet",
      "outputs": [
        {
          "name": "",
          "type": "uint256"
        }
      ],
      "payable": false,
      "stateMutability": "view",
      "type": "function"
    },
    {
      "inputs": [
        {
          "name": "_minimumBet",
          "type": "uint256"
        }
      ],
      "payable": false,
      "stateMutability": "nonpayable",
      "type": "constructor"
    },
    {
      "payable": true,
      "stateMutability": "payable",
      "type": "fallback"
    },
    {
      "constant": false,
      "inputs": [],
      "name": "kill",
      "outputs": [],
      "payable": false,
      "stateMutability": "nonpayable",
      "type": "function"
    },
    {
      "constant": true,
      "inputs": [
        {
          "name": "player",
          "type": "address"
        }
      ],
      "name": "checkPlayerExists",
      "outputs": [
        {
          "name": "",
          "type": "bool"
        }
      ],
      "payable": false,
      "stateMutability": "view",
      "type": "function"
    },
    {
      "constant": false,
      "inputs": [
        {
          "name": "numberSelected",
          "type": "uint256"
        }
      ],
      "name": "bet",
      "outputs": [],
      "payable": true,
      "stateMutability": "payable",
      "type": "function"
    },
    {
      "constant": false,
      "inputs": [],
      "name": "generateNumberWinner",
      "outputs": [],
      "payable": false,
      "stateMutability": "nonpayable",
      "type": "function"
    },
    {
      "constant": false,
      "inputs": [
        {
          "name": "numberWinner",
          "type": "uint256"
        }
      ],
      "name": "distributePrizes",
      "outputs": [],
      "payable": false,
      "stateMutability": "nonpayable",
      "type": "function"
    },
    {
      "constant": false,
      "inputs": [],
      "name": "resetData",
      "outputs": [],
      "payable": false,
      "stateMutability": "nonpayable",
      "type": "function"
    }
  ],
  "bytecode": "0x6080604052606460045534801561001557600080fd5b50604051602080610a7b83398101806040528101908080519060200190929190505050336000806101000a81548173ffffffffffffffffffffffffffffffffffffffff021916908373ffffffffffffffffffffffffffffffffffffffff16021790555060008114151561008a57806001819055505b506109e18061009a6000396000f3006080604052600436106100c5576000357c0100000000000000000000000000000000000000000000000000000000900463ffffffff1680630a50e361146100c75780632ca8c6d3146100de5780634081d9161461010957806341c0e1b514610164578063478c4e0e1461017b5780634b114691146101925780636ca3fc3b146101f05780637365870b1461021d5780638da5cb5b1461023d578063c38a8afd14610294578063e08a96cd146102bf578063f71d96cb146102ea578063fe5e185314610357575b005b3480156100d357600080fd5b506100dc610382565b005b3480156100ea57600080fd5b506100f36103a2565b6040518082815260200191505060405180910390f35b34801561011557600080fd5b5061014a600480360381019080803573ffffffffffffffffffffffffffffffffffffffff1690602001909291905050506103a8565b604051808215151515815260200191505060405180910390f35b34801561017057600080fd5b5061017961044b565b005b34801561018757600080fd5b506101906104dc565b005b34801561019e57600080fd5b506101d3600480360381019080803573ffffffffffffffffffffffffffffffffffffffff1690602001909291905050506104fe565b604051808381526020018281526020019250505060405180910390f35b3480156101fc57600080fd5b5061021b60048036038101908080359060200190929190505050610522565b005b61023b60048036038101908080359060200190929190505050610759565b005b34801561024957600080fd5b506102526108cb565b604051808273ffffffffffffffffffffffffffffffffffffffff1673ffffffffffffffffffffffffffffffffffffffff16815260200191505060405180910390f35b3480156102a057600080fd5b506102a96108f0565b6040518082815260200191505060405180910390f35b3480156102cb57600080fd5b506102d46108f6565b6040518082815260200191505060405180910390f35b3480156102f657600080fd5b50610315600480360381019080803590602001909291905050506108fc565b604051808273ffffffffffffffffffffffffffffffffffffffff1673ffffffffffffffffffffffffffffffffffffffff16815260200191505060405180910390f35b34801561036357600080fd5b5061036c61093a565b6040518082815260200191505060405180910390f35b60006001600a4381151561039257fe5b0601905061039f81610522565b50565b60035481565b600080600090505b600580549050811015610440578273ffffffffffffffffffffffffffffffffffffffff166005828154811015156103e357fe5b9060005260206000200160009054906101000a900473ffffffffffffffffffffffffffffffffffffffff1673ffffffffffffffffffffffffffffffffffffffff1614156104335760019150610445565b80806001019150506103b0565b600091505b50919050565b6000809054906101000a900473ffffffffffffffffffffffffffffffffffffffff1673ffffffffffffffffffffffffffffffffffffffff163373ffffffffffffffffffffffffffffffffffffffff1614156104da576000809054906101000a900473ffffffffffffffffffffffffffffffffffffffff1673ffffffffffffffffffffffffffffffffffffffff16ff5b565b60006005816104eb9190610940565b5060006002819055506000600381905550565b60066020528060005260406000206000915090508060000154908060010154905082565b61052a61096c565b6000806000806000809450600093505b60058054905084101561067b5760058481548110151561055657fe5b9060005260206000200160009054906101000a900473ffffffffffffffffffffffffffffffffffffffff16925086600660008573ffffffffffffffffffffffffffffffffffffffff1673ffffffffffffffffffffffffffffffffffffffff16815260200190815260200160002060010154141561061c578286866064811015156105dc57fe5b602002019073ffffffffffffffffffffffffffffffffffffffff16908173ffffffffffffffffffffffffffffffffffffffff168152505084806001019550505b600660008473ffffffffffffffffffffffffffffffffffffffff1673ffffffffffffffffffffffffffffffffffffffff16815260200190815260200160002060008082016000905560018201600090555050838060010194505061053a565b6106836104dc565b606460025481151561069157fe5b049150600090505b8481101561075057600073ffffffffffffffffffffffffffffffffffffffff1686826064811015156106c757fe5b602002015173ffffffffffffffffffffffffffffffffffffffff161415156107435785816064811015156106f757fe5b602002015173ffffffffffffffffffffffffffffffffffffffff166108fc839081150290604051600060405180830381858888f19350505050158015610741573d6000803e3d6000fd5b505b8080600101915050610699565b50505050505050565b610762336103a8565b15151561076e57600080fd5b600181101580156107805750600a8111155b151561078b57600080fd5b600154341015151561079c57600080fd5b34600660003373ffffffffffffffffffffffffffffffffffffffff1673ffffffffffffffffffffffffffffffffffffffff1681526020019081526020016000206000018190555080600660003373ffffffffffffffffffffffffffffffffffffffff1673ffffffffffffffffffffffffffffffffffffffff1681526020019081526020016000206001018190555060036000815480929190600101919050555060053390806001815401808255809150509060018203906000526020600020016000909192909190916101000a81548173ffffffffffffffffffffffffffffffffffffffff021916908373ffffffffffffffffffffffffffffffffffffffff16021790555050346002600082825401925050819055506004546003541015156108c8576108c7610382565b5b50565b6000809054906101000a900473ffffffffffffffffffffffffffffffffffffffff1681565b60015481565b60045481565b60058181548110151561090b57fe5b906000526020600020016000915054906101000a900473ffffffffffffffffffffffffffffffffffffffff1681565b60025481565b815481835581811115610967578183600052602060002091820191016109669190610990565b5b505050565b610c8060405190810160405280606490602082028038833980820191505090505090565b6109b291905b808211156109ae576000816000905550600101610996565b5090565b905600a165627a7a723058203e6e162fda022c64637bc47e18130a967728acc7dc0db6d65b148f431204ee660029",
  "source": "pragma solidity 0.4.24;\n\ncontract Casino {\n    address public owner;\n    uint256 public minimumBet;\n    uint256 public totalBet;\n    uint256 public numberOfBets;\n    uint256 public maxAmountOfBets = 100;\n    address[] public players;\n\n    struct Player {\n        uint256 amountBet;\n        uint256 numberSelected;\n    }\n\n    mapping(address => Player) public playerInfo;\n\n    function() public payable {}\n\n    constructor (uint256 _minimumBet) public {\n        owner = msg.sender;\n        if(_minimumBet != 0) minimumBet = _minimumBet;\n    }\n\n    function kill() public {\n        if(msg.sender == owner) selfdestruct(owner);\n    }\n\n    // To check if the user has already played\n    function checkPlayerExists(address player) public constant returns(bool) {\n        for (uint256 i = 0; i < players.length; i++) {\n            if(players[i] == player) return true;\n        }\n        return false;\n    }\n\n    // For placing bets\n    function bet(uint256 numberSelected) public payable {\n        require(!checkPlayerExists(msg.sender));\n        require(numberSelected >= 1 && numberSelected <= 10);\n        require(msg.value >= minimumBet);\n\n        playerInfo[msg.sender].amountBet = msg.value;\n        playerInfo[msg.sender].numberSelected = numberSelected;\n        numberOfBets++;\n        players.push(msg.sender);\n        totalBet += msg.value;\n\n        if(numberOfBets >= maxAmountOfBets) generateNumberWinner();\n    }\n\n    // Generates the winner\n    function generateNumberWinner() public {\n        uint256 numberGenerated = block.number % 10 + 1;  // Not Secure\n        distributePrizes(numberGenerated);\n    }\n\n    // Winners Selection\n    function distributePrizes(uint256 numberWinner) public {\n      address[100] memory winners;\n      uint256 count = 0;\n      for(uint256 i = 0; i < players.length; i++){\n         address playerAddress = players[i];\n         if(playerInfo[playerAddress].numberSelected == numberWinner){\n            winners[count] = playerAddress;\n            count++;\n         }\n         delete playerInfo[playerAddress]; // Delete all the players\n      }\n      resetData();\n      uint256 winnerEtherAmount = totalBet / winners.length;\n      for(uint256 j = 0; j < count; j++){\n         if(winners[j] != address(0)) // Check that the address in this fixed array is not empty\n         winners[j].transfer(winnerEtherAmount);\n      }\n   }\n\n   function resetData() public{\n        players.length = 0; // Delete all the players array\n        totalBet = 0;\n        numberOfBets = 0;\n    }\n}",
  "sourcePath": "/home/harsh/code/casino-dapp/contracts/Casino.sol",
  "compiler": {
    "name": "solc",
    "version": "0.4.24+commit.e67f0147.Emscripten.clang"
  },
  "schemaVersion": "2.0.1",
  "updatedAt": "2018-08-10T17:14:06.857Z"
}